{
  "transactions": [
    {
      "hash": "0x53fd82a0138a2e3b3b21705c4d09aa49ed7cc67c93bf695e9f446d240ba82412",
      "transactionType": "CALL",
      "contractName": null,
      "contractAddress": "0xe03a1074c86cfedd5c142c4f04f1a1536e203543",
      "function": "initialize((address,address,uint24,int24,address),uint160)",
      "arguments": [
        "(0x88541670E55cC00bEEFD87eB59EDd1b7C511AC9a, 0xf8Fb3713D459D7C1018BD0A49D19b4C44290EBE5, 3000, 10, 0xf600DB53A6F76e3C8087524f48F35e46Ed7c8040)",
        "79228162514264337593543950336"
      ],
      "transaction": {
        "from": "0xde589c867174c349d00e9b582867af5c13a74679",
        "to": "0xe03a1074c86cfedd5c142c4f04f1a1536e203543",
        "gas": "0x11738",
        "value": "0x0",
        "input": "0x6276cbbe00000000000000000000000088541670e55cc00beefd87eb59edd1b7c511ac9a000000000000000000000000f8fb3713d459d7c1018bd0a49d19b4c44290ebe50000000000000000000000000000000000000000000000000000000000000bb8000000000000000000000000000000000000000000000000000000000000000a000000000000000000000000f600db53a6f76e3c8087524f48f35e46ed7c80400000000000000000000000000000000000000001000000000000000000000000",
        "nonce": "0x1a",
        "chainId": "0xaa36a7"
      },
      "additionalContracts": [],
      "isFixedGasLimit": false
    }
  ],
  "receipts": [
    {
      "status": "0x1",
      "cumulativeGasUsed": "0xa05076",
      "logs": [
        {
          "address": "0xe03a1074c86cfedd5c142c4f04f1a1536e203543",
          "topics": [
            "0xdd466e674ea557f56295e2d0218a125ea4b4f0f6f3307b95f85e6110838d6438",
            "0x26ac4021c01554ab2610eb42ffb59c9b862b592d6426b04b103fcb26f180c72c",
            "0x00000000000000000000000088541670e55cc00beefd87eb59edd1b7c511ac9a",
            "0x000000000000000000000000f8fb3713d459d7c1018bd0a49d19b4c44290ebe5"
          ],
          "data": "0x0000000000000000000000000000000000000000000000000000000000000bb8000000000000000000000000000000000000000000000000000000000000000a000000000000000000000000f600db53a6f76e3c8087524f48f35e46ed7c804000000000000000000000000000000000000000010000000000000000000000000000000000000000000000000000000000000000000000000000000000000000",
          "blockHash": "0x62477cca12512110018f2150d786d8be52fba14e0afd142eb5f48dd6729cb08f",
          "blockNumber": "0x94233b",
          "blockTimestamp": "0x69267f0c",
          "transactionHash": "0x53fd82a0138a2e3b3b21705c4d09aa49ed7cc67c93bf695e9f446d240ba82412",
          "transactionIndex": "0x64",
          "logIndex": "0xd8",
          "removed": false
        }
      ],
      "logsBloom": "0x00120000000000400000000000000000000000000000000010000000000000000000000000000000000000000000000000000100000000000000000000000000000000000000000000000000000000000000000000000000000000000000000000000000000000000000000000000000000000000000100000000000008000000000000000000008000000000000000000000001000000000000000000200000000000000000020000000000000000000010000000000000000000000000080000000000000000000000000000000000004000000000000000000000000000001000000000000000000000000000000000000000000000000000000000000000",
      "type": "0x2",
      "transactionHash": "0x53fd82a0138a2e3b3b21705c4d09aa49ed7cc67c93bf695e9f446d240ba82412",
      "transactionIndex": "0x64",
      "blockHash": "0x62477cca12512110018f2150d786d8be52fba14e0afd142eb5f48dd6729cb08f",
      "blockNumber": "0x94233b",
      "gasUsed": "0xca27",
      "effectiveGasPrice": "0xf424c",
      "from": "0xde589c867174c349d00e9b582867af5c13a74679",
      "to": "0xe03a1074c86cfedd5c142c4f04f1a1536e203543",
      "contractAddress": null
    }
  ],
  "libraries": [],
  "pending": [],
  "returns": {},
  "timestamp": 1764130574536,
  "chain": 11155111,
  "commit": "eeb0243"
}