{
  "transactions": [
    {
      "hash": "0xea8ae7117951c011eb3a36e1bbff29cac6eaa82b4b090b937b5b80b42b5ed449",
      "transactionType": "CALL",
      "contractName": null,
      "contractAddress": "0x88541670e55cc00beefd87eb59edd1b7c511ac9a",
      "function": "approve(address,uint256)",
      "arguments": [
        "0x000000000022D473030F116dDEE9F6B43aC78BA3",
        "3550000000000000000000"
      ],
      "transaction": {
        "from": "0xde589c867174c349d00e9b582867af5c13a74679",
        "to": "0x88541670e55cc00beefd87eb59edd1b7c511ac9a",
        "gas": "0x107f3",
        "value": "0x0",
        "input": "0x095ea7b3000000000000000000000000000000000022d473030f116ddee9f6b43ac78ba30000000000000000000000000000000000000000000000c072258f4b3cb80000",
        "nonce": "0x1b",
        "chainId": "0xaa36a7"
      },
      "additionalContracts": [],
      "isFixedGasLimit": false
    },
    {
      "hash": "0xe7c62c4c1d6bea1272e4c4391ad1c8aadb0bc11ac74e27db350f839b8091d7b8",
      "transactionType": "CALL",
      "contractName": null,
      "contractAddress": "0xf8fb3713d459d7c1018bd0a49d19b4c44290ebe5",
      "function": "approve(address,uint256)",
      "arguments": [
        "0x000000000022D473030F116dDEE9F6B43aC78BA3",
        "3900000000000000000000"
      ],
      "transaction": {
        "from": "0xde589c867174c349d00e9b582867af5c13a74679",
        "to": "0xf8fb3713d459d7c1018bd0a49d19b4c44290ebe5",
        "gas": "0x107f3",
        "value": "0x0",
        "input": "0x095ea7b3000000000000000000000000000000000022d473030f116ddee9f6b43ac78ba30000000000000000000000000000000000000000000000d36b5f58ea17700000",
        "nonce": "0x1c",
        "chainId": "0xaa36a7"
      },
      "additionalContracts": [],
      "isFixedGasLimit": false
    },
    {
      "hash": "0x4a08ab02421563ad864b88bbfa4a605f0b9aa9ff68692a91c29a0213241260b4",
      "transactionType": "CALL",
      "contractName": null,
      "contractAddress": "0x000000000022d473030f116ddee9f6b43ac78ba3",
      "function": "approve(address,address,uint160,uint48)",
      "arguments": [
        "0x88541670E55cC00bEEFD87eB59EDd1b7C511AC9a",
        "0x429ba70129df741B2Ca2a85BC3A2a3328e5c09b4",
        "1461501637330902918203684832716283019655932542975",
        "281474976710655"
      ],
      "transaction": {
        "from": "0xde589c867174c349d00e9b582867af5c13a74679",
        "to": "0x000000000022d473030f116ddee9f6b43ac78ba3",
        "gas": "0x1112d",
        "value": "0x0",
        "input": "0x87517c4500000000000000000000000088541670e55cc00beefd87eb59edd1b7c511ac9a000000000000000000000000429ba70129df741b2ca2a85bc3a2a3328e5c09b4000000000000000000000000ffffffffffffffffffffffffffffffffffffffff0000000000000000000000000000000000000000000000000000ffffffffffff",
        "nonce": "0x1d",
        "chainId": "0xaa36a7"
      },
      "additionalContracts": [],
      "isFixedGasLimit": false
    },
    {
      "hash": "0x15e7e12c1b4693c6fc6c38c605b068ce3a3f13531ac6be79c6414ed44daf5683",
      "transactionType": "CALL",
      "contractName": null,
      "contractAddress": "0x000000000022d473030f116ddee9f6b43ac78ba3",
      "function": "approve(address,address,uint160,uint48)",
      "arguments": [
        "0xf8Fb3713D459D7C1018BD0A49D19b4C44290EBE5",
        "0x429ba70129df741B2Ca2a85BC3A2a3328e5c09b4",
        "1461501637330902918203684832716283019655932542975",
        "281474976710655"
      ],
      "transaction": {
        "from": "0xde589c867174c349d00e9b582867af5c13a74679",
        "to": "0x000000000022d473030f116ddee9f6b43ac78ba3",
        "gas": "0x1112d",
        "value": "0x0",
        "input": "0x87517c45000000000000000000000000f8fb3713d459d7c1018bd0a49d19b4c44290ebe5000000000000000000000000429ba70129df741b2ca2a85bc3a2a3328e5c09b4000000000000000000000000ffffffffffffffffffffffffffffffffffffffff0000000000000000000000000000000000000000000000000000ffffffffffff",
        "nonce": "0x1e",
        "chainId": "0xaa36a7"
      },
      "additionalContracts": [],
      "isFixedGasLimit": false
    },
    {
      "hash": "0xc9e7a00047929de065cd1d5a837fa6855e33de5c7df8855a99d6489a2c0ba878",
      "transactionType": "CALL",
      "contractName": null,
      "contractAddress": "0x429ba70129df741b2ca2a85bc3a2a3328e5c09b4",
      "function": "modifyLiquidities(bytes,uint256)",
      "arguments": [
        "0x000000000000000000000000000000000000000000000000000000000000004000000000000000000000000000000000000000000000000000000000000000800000000000000000000000000000000000000000000000000000000000000002020d00000000000000000000000000000000000000000000000000000000000000000000000000000000000000000000000000000000000000000000000000020000000000000000000000000000000000000000000000000000000000000040000000000000000000000000000000000000000000000000000000000000020000000000000000000000000000000000000000000000000000000000000001a000000000000000000000000088541670e55cc00beefd87eb59edd1b7c511ac9a000000000000000000000000f8fb3713d459d7c1018bd0a49d19b4c44290ebe50000000000000000000000000000000000000000000000000000000000000bb8000000000000000000000000000000000000000000000000000000000000000a000000000000000000000000f600db53a6f76e3c8087524f48f35e46ed7c8040fffffffffffffffffffffffffffffffffffffffffffffffffffffffffff2761a00000000000000000000000000000000000000000000000000000000000d89e60000000000000000000000000000000000000000000000c072258f4b3cb800000000000000000000000000000000000000000000000000c072258f4b3cb800000000000000000000000000000000000000000000000000d36b5f58ea17700000000000000000000000000000de589c867174c349d00e9b582867af5c13a7467900000000000000000000000000000000000000000000000000000000000001800000000000000000000000000000000000000000000000000000000000000000000000000000000000000000000000000000000000000000000000000000004000000000000000000000000088541670e55cc00beefd87eb59edd1b7c511ac9a000000000000000000000000f8fb3713d459d7c1018bd0a49d19b4c44290ebe5",
        "1764134340"
      ],
      "transaction": {
        "from": "0xde589c867174c349d00e9b582867af5c13a74679",
        "to": "0x429ba70129df741b2ca2a85bc3a2a3328e5c09b4",
        "gas": "0x951d8",
        "value": "0x0",
        "input": "0xdd46508f00000000000000000000000000000000000000000000000000000000000000400000000000000000000000000000000000000000000000000000000069268dc40000000000000000000000000000000000000000000000000000000000000300000000000000000000000000000000000000000000000000000000000000004000000000000000000000000000000000000000000000000000000000000000800000000000000000000000000000000000000000000000000000000000000002020d00000000000000000000000000000000000000000000000000000000000000000000000000000000000000000000000000000000000000000000000000020000000000000000000000000000000000000000000000000000000000000040000000000000000000000000000000000000000000000000000000000000020000000000000000000000000000000000000000000000000000000000000001a000000000000000000000000088541670e55cc00beefd87eb59edd1b7c511ac9a000000000000000000000000f8fb3713d459d7c1018bd0a49d19b4c44290ebe50000000000000000000000000000000000000000000000000000000000000bb8000000000000000000000000000000000000000000000000000000000000000a000000000000000000000000f600db53a6f76e3c8087524f48f35e46ed7c8040fffffffffffffffffffffffffffffffffffffffffffffffffffffffffff2761a00000000000000000000000000000000000000000000000000000000000d89e60000000000000000000000000000000000000000000000c072258f4b3cb800000000000000000000000000000000000000000000000000c072258f4b3cb800000000000000000000000000000000000000000000000000d36b5f58ea17700000000000000000000000000000de589c867174c349d00e9b582867af5c13a7467900000000000000000000000000000000000000000000000000000000000001800000000000000000000000000000000000000000000000000000000000000000000000000000000000000000000000000000000000000000000000000000004000000000000000000000000088541670e55cc00beefd87eb59edd1b7c511ac9a000000000000000000000000f8fb3713d459d7c1018bd0a49d19b4c44290ebe5",
        "nonce": "0x1f",
        "chainId": "0xaa36a7"
      },
      "additionalContracts": [],
      "isFixedGasLimit": false
    }
  ],
  "receipts": [
    {
      "status": "0x1",
      "cumulativeGasUsed": "0x1699562",
      "logs": [
        {
          "address": "0x88541670e55cc00beefd87eb59edd1b7c511ac9a",
          "topics": [
            "0x8c5be1e5ebec7d5bd14f71427d1e84f3dd0314c0f7b2291e5b200ac8c7c3b925",
            "0x000000000000000000000000de589c867174c349d00e9b582867af5c13a74679",
            "0x000000000000000000000000000000000022d473030f116ddee9f6b43ac78ba3"
          ],
          "data": "0x0000000000000000000000000000000000000000000000c072258f4b3cb80000",
          "blockHash": "0xe41e4c797d03acdeb82758ca7ba15dcc68b668823bcc87c0934cad1f372e56c4",
          "blockNumber": "0x94246b",
          "blockTimestamp": "0x69268dac",
          "transactionHash": "0xea8ae7117951c011eb3a36e1bbff29cac6eaa82b4b090b937b5b80b42b5ed449",
          "transactionIndex": "0x42",
          "logIndex": "0xa5",
          "removed": false
        }
      ],
      "logsBloom": "0x00000000000000000000000000000000000008000000000000000000000000000000000000000000002000000000000000000000800000000000000000200200000002000000000000004000000000000000000000000800000000000000000000000000000000000000000000000000000000000000000000000000000000000000000000000000000000000000010000000000000000000000000000000000020000000000000000000000000000000000000000000000000000000000000000000000000000000000000000000000000000000000000000000000008000000010000000000000000000000000000000000000000000000000000000000000",
      "type": "0x2",
      "transactionHash": "0xea8ae7117951c011eb3a36e1bbff29cac6eaa82b4b090b937b5b80b42b5ed449",
      "transactionIndex": "0x42",
      "blockHash": "0xe41e4c797d03acdeb82758ca7ba15dcc68b668823bcc87c0934cad1f372e56c4",
      "blockNumber": "0x94246b",
      "gasUsed": "0xb47b",
      "effectiveGasPrice": "0xf426b",
      "from": "0xde589c867174c349d00e9b582867af5c13a74679",
      "to": "0x88541670e55cc00beefd87eb59edd1b7c511ac9a",
      "contractAddress": null
    },
    {
      "status": "0x1",
      "cumulativeGasUsed": "0x16a49dd",
      "logs": [
        {
          "address": "0xf8fb3713d459d7c1018bd0a49d19b4c44290ebe5",
          "topics": [
            "0x8c5be1e5ebec7d5bd14f71427d1e84f3dd0314c0f7b2291e5b200ac8c7c3b925",
            "0x000000000000000000000000de589c867174c349d00e9b582867af5c13a74679",
            "0x000000000000000000000000000000000022d473030f116ddee9f6b43ac78ba3"
          ],
          "data": "0x0000000000000000000000000000000000000000000000d36b5f58ea17700000",
          "blockHash": "0xe41e4c797d03acdeb82758ca7ba15dcc68b668823bcc87c0934cad1f372e56c4",
          "blockNumber": "0x94246b",
          "blockTimestamp": "0x69268dac",
          "transactionHash": "0xe7c62c4c1d6bea1272e4c4391ad1c8aadb0bc11ac74e27db350f839b8091d7b8",
          "transactionIndex": "0x43",
          "logIndex": "0xa6",
          "removed": false
        }
      ],
      "logsBloom": "0x00000000000000000000000000000000000008000000000000000000000000800000000000000000000000000000000000000000800000020000000000200000000002000000000000004000000000000000000000000800000000000000000000000000000000000000000000000400000000000000000000000000000000000000000000000000000000000000000000000000000000000000000000000000020000000000000000000000000000000000000000000000000000000000000000000000000000000000000000000000000000000000000000000000008000000010000000000000000000000000000000000000000000000000000000000000",
      "type": "0x2",
      "transactionHash": "0xe7c62c4c1d6bea1272e4c4391ad1c8aadb0bc11ac74e27db350f839b8091d7b8",
      "transactionIndex": "0x43",
      "blockHash": "0xe41e4c797d03acdeb82758ca7ba15dcc68b668823bcc87c0934cad1f372e56c4",
      "blockNumber": "0x94246b",
      "gasUsed": "0xb47b",
      "effectiveGasPrice": "0xf426b",
      "from": "0xde589c867174c349d00e9b582867af5c13a74679",
      "to": "0xf8fb3713d459d7c1018bd0a49d19b4c44290ebe5",
      "contractAddress": null
    },
    {
      "status": "0x1",
      "cumulativeGasUsed": "0x24685d2",
      "logs": [
        {
          "address": "0x000000000022d473030f116ddee9f6b43ac78ba3",
          "topics": [
            "0xda9fa7c1b00402c17d0161b249b1ab8bbec047c5a52207b9c112deffd817036b",
            "0x000000000000000000000000de589c867174c349d00e9b582867af5c13a74679",
            "0x00000000000000000000000088541670e55cc00beefd87eb59edd1b7c511ac9a",
            "0x000000000000000000000000429ba70129df741b2ca2a85bc3a2a3328e5c09b4"
          ],
          "data": "0x000000000000000000000000ffffffffffffffffffffffffffffffffffffffff0000000000000000000000000000000000000000000000000000ffffffffffff",
          "blockHash": "0x13aeded05e8e215135579ab1f205a346ab818d4a8906da0fe72a210552a7c251",
          "blockNumber": "0x94246c",
          "blockTimestamp": "0x69268db8",
          "transactionHash": "0x4a08ab02421563ad864b88bbfa4a605f0b9aa9ff68692a91c29a0213241260b4",
          "transactionIndex": "0x6e",
          "logIndex": "0x202",
          "removed": false
        }
      ],
      "logsBloom": "0x00110000000000400000000000000000000008000000000000000000000000000000000000000040080000000000000000000000000000000000000000080000000002000000000000000000000000000000000000000000000000000000000000000000000000000000000000000000000000000000000000000800000000000020000000000000000000000000000000000000000000000000000000000000000000000000000000000000000000000010000000000000000000080000000000000000000000000000000000000000000000000000000040000000008000000000000000000000000000000000000000000000000000000000000000000400",
      "type": "0x2",
      "transactionHash": "0x4a08ab02421563ad864b88bbfa4a605f0b9aa9ff68692a91c29a0213241260b4",
      "transactionIndex": "0x6e",
      "blockHash": "0x13aeded05e8e215135579ab1f205a346ab818d4a8906da0fe72a210552a7c251",
      "blockNumber": "0x94246c",
      "gasUsed": "0xbaca",
      "effectiveGasPrice": "0xf426a",
      "from": "0xde589c867174c349d00e9b582867af5c13a74679",
      "to": "0x000000000022d473030f116ddee9f6b43ac78ba3",
      "contractAddress": null
    },
    {
      "status": "0x1",
      "cumulativeGasUsed": "0x247409c",
      "logs": [
        {
          "address": "0x000000000022d473030f116ddee9f6b43ac78ba3",
          "topics": [
            "0xda9fa7c1b00402c17d0161b249b1ab8bbec047c5a52207b9c112deffd817036b",
            "0x000000000000000000000000de589c867174c349d00e9b582867af5c13a74679",
            "0x000000000000000000000000f8fb3713d459d7c1018bd0a49d19b4c44290ebe5",
            "0x000000000000000000000000429ba70129df741b2ca2a85bc3a2a3328e5c09b4"
          ],
          "data": "0x000000000000000000000000ffffffffffffffffffffffffffffffffffffffff0000000000000000000000000000000000000000000000000000ffffffffffff",
          "blockHash": "0x13aeded05e8e215135579ab1f205a346ab818d4a8906da0fe72a210552a7c251",
          "blockNumber": "0x94246c",
          "blockTimestamp": "0x69268db8",
          "transactionHash": "0x15e7e12c1b4693c6fc6c38c605b068ce3a3f13531ac6be79c6414ed44daf5683",
          "transactionIndex": "0x6f",
          "logIndex": "0x203",
          "removed": false
        }
      ],
      "logsBloom": "0x00030000000000000000000000000000000008000000000000000000000000000000000000000040080000000000000000000000000000000000000000080000000002000000000000000000000000000000000000000000000000000000000000000000000000000000000000000000000000000000000000000800000000000020000000000000000000000000000000000000000000000000000000000000000000000000020000000000000000000000000000000000000000080000000000000000000000000000000000000000004000000000000040000000008000000000000000000000000000000000000000000000000000000000000000000400",
      "type": "0x2",
      "transactionHash": "0x15e7e12c1b4693c6fc6c38c605b068ce3a3f13531ac6be79c6414ed44daf5683",
      "transactionIndex": "0x6f",
      "blockHash": "0x13aeded05e8e215135579ab1f205a346ab818d4a8906da0fe72a210552a7c251",
      "blockNumber": "0x94246c",
      "gasUsed": "0xbaca",
      "effectiveGasPrice": "0xf426a",
      "from": "0xde589c867174c349d00e9b582867af5c13a74679",
      "to": "0x000000000022d473030f116ddee9f6b43ac78ba3",
      "contractAddress": null
    },
    {
      "status": "0x1",
      "cumulativeGasUsed": "0x24d9ff5",
      "logs": [
        {
          "address": "0x429ba70129df741b2ca2a85bc3a2a3328e5c09b4",
          "topics": [
            "0xddf252ad1be2c89b69c2b068fc378daa952ba7f163c4a11628f55a4df523b3ef",
            "0x0000000000000000000000000000000000000000000000000000000000000000",
            "0x000000000000000000000000de589c867174c349d00e9b582867af5c13a74679",
            "0x000000000000000000000000000000000000000000000000000000000000516a"
          ],
          "data": "0x",
          "blockHash": "0x13aeded05e8e215135579ab1f205a346ab818d4a8906da0fe72a210552a7c251",
          "blockNumber": "0x94246c",
          "blockTimestamp": "0x69268db8",
          "transactionHash": "0xc9e7a00047929de065cd1d5a837fa6855e33de5c7df8855a99d6489a2c0ba878",
          "transactionIndex": "0x70",
          "logIndex": "0x204",
          "removed": false
        },
        {
          "address": "0xe03a1074c86cfedd5c142c4f04f1a1536e203543",
          "topics": [
            "0xf208f4912782fd25c7f114ca3723a2d5dd6f3bcc3ac8db5af63baa85f711d5ec",
            "0x26ac4021c01554ab2610eb42ffb59c9b862b592d6426b04b103fcb26f180c72c",
            "0x000000000000000000000000429ba70129df741b2ca2a85bc3a2a3328e5c09b4"
          ],
          "data": "0xfffffffffffffffffffffffffffffffffffffffffffffffffffffffffff2761a00000000000000000000000000000000000000000000000000000000000d89e60000000000000000000000000000000000000000000000c072258f4b3cb80000000000000000000000000000000000000000000000000000000000000000516a",
          "blockHash": "0x13aeded05e8e215135579ab1f205a346ab818d4a8906da0fe72a210552a7c251",
          "blockNumber": "0x94246c",
          "blockTimestamp": "0x69268db8",
          "transactionHash": "0xc9e7a00047929de065cd1d5a837fa6855e33de5c7df8855a99d6489a2c0ba878",
          "transactionIndex": "0x70",
          "logIndex": "0x205",
          "removed": false
        },
        {
          "address": "0x88541670e55cc00beefd87eb59edd1b7c511ac9a",
          "topics": [
            "0xddf252ad1be2c89b69c2b068fc378daa952ba7f163c4a11628f55a4df523b3ef",
            "0x000000000000000000000000de589c867174c349d00e9b582867af5c13a74679",
            "0x000000000000000000000000e03a1074c86cfedd5c142c4f04f1a1536e203543"
          ],
          "data": "0x0000000000000000000000000000000000000000000000c072258f4b3cb7ff40",
          "blockHash": "0x13aeded05e8e215135579ab1f205a346ab818d4a8906da0fe72a210552a7c251",
          "blockNumber": "0x94246c",
          "blockTimestamp": "0x69268db8",
          "transactionHash": "0xc9e7a00047929de065cd1d5a837fa6855e33de5c7df8855a99d6489a2c0ba878",
          "transactionIndex": "0x70",
          "logIndex": "0x206",
          "removed": false
        },
        {
          "address": "0x88541670e55cc00beefd87eb59edd1b7c511ac9a",
          "topics": [
            "0x8c5be1e5ebec7d5bd14f71427d1e84f3dd0314c0f7b2291e5b200ac8c7c3b925",
            "0x000000000000000000000000de589c867174c349d00e9b582867af5c13a74679",
            "0x000000000000000000000000000000000022d473030f116ddee9f6b43ac78ba3"
          ],
          "data": "0x00000000000000000000000000000000000000000000000000000000000000c0",
          "blockHash": "0x13aeded05e8e215135579ab1f205a346ab818d4a8906da0fe72a210552a7c251",
          "blockNumber": "0x94246c",
          "blockTimestamp": "0x69268db8",
          "transactionHash": "0xc9e7a00047929de065cd1d5a837fa6855e33de5c7df8855a99d6489a2c0ba878",
          "transactionIndex": "0x70",
          "logIndex": "0x207",
          "removed": false
        },
        {
          "address": "0xf8fb3713d459d7c1018bd0a49d19b4c44290ebe5",
          "topics": [
            "0xddf252ad1be2c89b69c2b068fc378daa952ba7f163c4a11628f55a4df523b3ef",
            "0x000000000000000000000000de589c867174c349d00e9b582867af5c13a74679",
            "0x000000000000000000000000e03a1074c86cfedd5c142c4f04f1a1536e203543"
          ],
          "data": "0x0000000000000000000000000000000000000000000000c072258f4b3cb7ff40",
          "blockHash": "0x13aeded05e8e215135579ab1f205a346ab818d4a8906da0fe72a210552a7c251",
          "blockNumber": "0x94246c",
          "blockTimestamp": "0x69268db8",
          "transactionHash": "0xc9e7a00047929de065cd1d5a837fa6855e33de5c7df8855a99d6489a2c0ba878",
          "transactionIndex": "0x70",
          "logIndex": "0x208",
          "removed": false
        },
        {
          "address": "0xf8fb3713d459d7c1018bd0a49d19b4c44290ebe5",
          "topics": [
            "0x8c5be1e5ebec7d5bd14f71427d1e84f3dd0314c0f7b2291e5b200ac8c7c3b925",
            "0x000000000000000000000000de589c867174c349d00e9b582867af5c13a74679",
            "0x000000000000000000000000000000000022d473030f116ddee9f6b43ac78ba3"
          ],
          "data": "0x000000000000000000000000000000000000000000000012f939c99edab800c0",
          "blockHash": "0x13aeded05e8e215135579ab1f205a346ab818d4a8906da0fe72a210552a7c251",
          "blockNumber": "0x94246c",
          "blockTimestamp": "0x69268db8",
          "transactionHash": "0xc9e7a00047929de065cd1d5a837fa6855e33de5c7df8855a99d6489a2c0ba878",
          "transactionIndex": "0x70",
          "logIndex": "0x209",
          "removed": false
        }
      ],
      "logsBloom": "0x00000000000000000000001000000000000008000000000010000000080000800000000000000040082000000000000000000100800000020000000000200200000002000000000000004008000000000000000000000800000000000000000000000010020000000000000080000c00000000000000100000000810008000000000000001000000000010000000010000000000000000000000040000000000020004000000000000000000000000000000000000400000000000000000080000000002000000000000000000000000000000000000000000001000008020001010000000000000000200000000000004000000000000000000000000000000",
      "type": "0x2",
      "transactionHash": "0xc9e7a00047929de065cd1d5a837fa6855e33de5c7df8855a99d6489a2c0ba878",
      "transactionIndex": "0x70",
      "blockHash": "0x13aeded05e8e215135579ab1f205a346ab818d4a8906da0fe72a210552a7c251",
      "blockNumber": "0x94246c",
      "gasUsed": "0x65f59",
      "effectiveGasPrice": "0xf426a",
      "from": "0xde589c867174c349d00e9b582867af5c13a74679",
      "to": "0x429ba70129df741b2ca2a85bc3a2a3328e5c09b4",
      "contractAddress": null
    }
  ],
  "libraries": [],
  "pending": [],
  "returns": {},
  "timestamp": 1764134330441,
  "chain": 11155111,
  "commit": "eeb0243"
}