{
  "transactions": [
    {
      "hash": "0xeaf24ad8c07ea938ce1c71bdd1c21d831b7be93a9fb009c45d76d8418dc5c4a4",
      "transactionType": "CALL",
      "contractName": null,
      "contractAddress": "0x8976fd44f134a93474c7809ff36de95fcbcc777a",
      "function": "setUniswapV4PoolConfig((address,address,uint24,int24,address),int24,int24)",
      "arguments": [
        "(0x88541670E55cC00bEEFD87eB59EDd1b7C511AC9a, 0xf8Fb3713D459D7C1018BD0A49D19b4C44290EBE5, 3000, 10, 0xf600DB53A6F76e3C8087524f48F35e46Ed7c8040)",
        "-887270",
        "887270"
      ],
      "transaction": {
        "from": "0xde589c867174c349d00e9b582867af5c13a74679",
        "to": "0x8976fd44f134a93474c7809ff36de95fcbcc777a",
        "gas": "0x28978",
        "value": "0x0",
        "input": "0xd799beab00000000000000000000000088541670e55cc00beefd87eb59edd1b7c511ac9a000000000000000000000000f8fb3713d459d7c1018bd0a49d19b4c44290ebe50000000000000000000000000000000000000000000000000000000000000bb8000000000000000000000000000000000000000000000000000000000000000a000000000000000000000000f600db53a6f76e3c8087524f48f35e46ed7c8040fffffffffffffffffffffffffffffffffffffffffffffffffffffffffff2761a00000000000000000000000000000000000000000000000000000000000d89e6",
        "nonce": "0x25",
        "chainId": "0xaa36a7"
      },
      "additionalContracts": [],
      "isFixedGasLimit": false
    }
  ],
  "receipts": [
    {
      "status": "0x1",
      "cumulativeGasUsed": "0x1a93b47",
      "logs": [],
      "logsBloom": "0x00000000000000000000000000000000000000000000000000000000000000000000000000000000000000000000000000000000000000000000000000000000000000000000000000000000000000000000000000000000000000000000000000000000000000000000000000000000000000000000000000000000000000000000000000000000000000000000000000000000000000000000000000000000000000000000000000000000000000000000000000000000000000000000000000000000000000000000000000000000000000000000000000000000000000000000000000000000000000000000000000000000000000000000000000000000",
      "type": "0x2",
      "transactionHash": "0xeaf24ad8c07ea938ce1c71bdd1c21d831b7be93a9fb009c45d76d8418dc5c4a4",
      "transactionIndex": "0x2b",
      "blockHash": "0x24f8920d264e85026e1a8f4d71167cb8f891d814af251bdc99be5beb76ab421a",
      "blockNumber": "0x94251d",
      "gasUsed": "0x1d635",
      "effectiveGasPrice": "0x11a096",
      "from": "0xde589c867174c349d00e9b582867af5c13a74679",
      "to": "0x8976fd44f134a93474c7809ff36de95fcbcc777a",
      "contractAddress": null
    }
  ],
  "libraries": [],
  "pending": [],
  "returns": {},
  "timestamp": 1764136562256,
  "chain": 11155111,
  "commit": "826831e"
}